:020000040800F2
:1000000000050020D9000008411D00081319000850
:1000100000000000000000000000000000000000E0
:10002000000000000000000000000000451D000866
:100030000000000000000000431D0008471D0008EC
:10004000EB00000800000000EB000008EB000008D7
:10005000EB000008EB000008EB000008EB000008D4
:1000600000000000EB000008EB000008EB000008B7
:10007000EB000008EB000008EB00000800000000A7
:10008000EB0000080000000000000000EB0000088A
:1000900000000000EB000008EB000008EB00000887
:1000A000EB000008EB000008EB000008EB00000884
:1000B000EB0000080000000000000000000000004D
:1000C0000448854600F002FB00480047312C000838
:1000D000C046C04600050020044880470448004749
:1000E000FEE7FEE7FEE7FEE7FEE7FEE7B91D0008D4
:1000F000C100000830B50B46014600202022012433
:1001000009E00D46D5409D4205D31D469540491B4B
:100110002546954040191546521E002DF1DC30BD94
:10012000D2B201E00270401C491EFBD2704700228F
:10013000F6E710B513460A4604461946FFF7F0FFE6
:10014000204610BD420005D04200120E52428A42A3
:1001500001DB00207047C90508187047F0B51FB4CF
:1001600088B00B990998002448400999C00F4900AC
:1001700049080991C0070B990090490049080B9163
:1001800009990898A64608431CD00B990A98084379
:1001900018D0099801244000420D4800410D0998EB
:1001A00024050003000B204309900B980003000B6B
:1001B00020430B9050181C4940180022019014460F
:1001C000104605E0002001460DB0F0BD032801DA1D
:1001D000034600E003239C46C11A0AAE0AE05F0012
:1001E00008ADED5B4F00F75B7D430027AA187C410B
:1001F000491C5B1E6145F2DD410004AB5A522104EB
:10020000120C0A43240C401C0828DFDB01980290E2
:100210000099704601910090059B049A07990698F1
:1002200000F019F9D0E700000DFCFFFFF0B50C4617
:100230005C4085B0E40FE40703944C00002664089A
:1002400059009446490802460296224321D062464C
:100250000A431ED06200570D4A000E032303550DBA
:10026000012402462C492405781B1B0B360B401831
:1002700023432643614600901C46501AB44103D3E1
:100280000098401C009002E0921800985B41002802
:1002900003DA0020014605B0F0BD00200121090568
:1002A0000746864611E064461D46141BB54106D339
:1002B0006546521BB341744607430C43A646CD071F
:1002C00040084908284392185B4105460D43EAD18E
:1002D0001046184313D060461946504071400843F9
:1002E00006D06046101AB34106D20122002306E070
:1002F00000220123DB0702E00122D24353100098C1
:1003000074460105381C6141029C039D0019694136
:1003100000F094F8BFE70000FD030000C217C10F12
:10032000504010B54018CA079623002100F04DF840
:1003300010BDC20FD207400040080BD0C10D0723EB
:10034000DB01C91840020905400A1143C2084007F1
:1003500011437047002001467047F0B51FB40646B0
:10036000002082B005464024019100901BE00199D5
:1003700022460F46304600F0CBF9049A059B801ABE
:10038000994110D310461946224600F0B1F9361AA9
:100390008F410197224601200021009F00F0A8F91B
:1003A00038184D4100902046641E0028DFDC019B78
:1003B00000982946324607B0F0BD002904DA401CF7
:1003C000490001D140084000704770B40024050C7A
:1003D00005D11024000402D1002921D01124050EDA
:1003E00001D100020834050F01D10001241D850F41
:1003F00001D18000A41C002801DB4000641C0029FE
:1004000008D020252E1B0D46F540A14000D001212B
:100410002943084301061B1B000ADB1D02D50020EF
:1004200070BC7047DB05181880180029F8DA401CEA
:100430004900F5D170BC40084000704710B5002B52
:1004400008DA0024401C614192185B411A4301D133
:100450004008400010BDF0B51FB482B005460C0046
:1004600003D0084601F0CCFE02E001F0C9FE2030C6
:10047000024600902146284600F03AF9049B059A6E
:1004800004460F4618431143084314D0184610433E
:100490001BD0009840210A1A1846059900F038F937
:1004A00005460E46009A0599049800F021F9084384
:1004B00005D0012004E02046394607B0F0BD0020F9
:1004C000C11705430E432C43374300990E9863052B
:1004D000401A7905E40A00220C43FD0A0A3002D5CD
:1004E00000200146E9E70105101969410C9C0D9DAA
:1004F00000196941FFF7A2FFDFE70000F0B50746EA
:100500000846584087B0C00F049048000E46590076
:1005100040084908BC1A884105D2384631461E4673
:1005200017460B4602465800400810434DD0300D88
:10053000039040055900400D490D0590401A029066
:10054000402873DA18030121000B090508430190C4
:1005500004980092002806D01146019A49420020D2
:10056000904100910190029840210A1A0199009847
:1005700000F0BEF805460C466B4607CB00F0D9F8F4
:10058000C0197141039A0E0D0023D71756401A4621
:100590007A40164344D0049A002A2DD0029A012AA8
:1005A000039A15DC1205C01A914101263605001C7C
:1005B0007141D20F059ED2070093019202962A46FE
:1005C0002346FFF748FF07B0F0BD38463146FAE74B
:1005D0001605234A0F46B218C01AB7410121090572
:1005E000001C4F4100187F41114618187941E20F55
:1005F00010436D19644113E0E2076D081543640868
:10060000C2071443039A01261205C01A9141360508
:10061000001C7141CE07400830434908C0185141C1
:100620002A462346FFF70AFFCDE7FFE70498012299
:100630004000C117121A00238B4104983146C41799
:10064000381AA141EEE730B40124E407634030BC1E
:1006500054E730B40124E407614030BC4EE70000A9
:100660000000E0FF4A0009030123090B1B051943A1
:100670000A4B10B5520D9A4202DA0020014610BD15
:10068000064B34339A4203DC9A1A00F041F810BD4D
:10069000034BD21800F02CF810BD0000FF0300003F
:1006A000CDFBFFFF10B5002904DB0124E407404225
:1006B0008C412146002B04DB1C460123DB07524200
:1006C000A341994200D1904210BD0000064C012583
:1006D000064E05E0E36807CC2B430C3C98471034EA
:1006E000B442F7D3FFF7F0FCD02D0008F02D00083E
:1006F00010B5202A04DB0146203A9140002010BDAD
:10070000914020239C1A0346E3401943904010BDBA
:1007100010B5202A04DB0846203AD040002110BD45
:100720000B46D340D0402024A21A914008431946DA
:1007300010BD10B5202A06DBCB170846203A104121
:10074000C1170B4306E00B461341D0402024A21AE8
:1007500091400843194610BD72B6FEE770B50446D5
:1007600000F0BCF80546601C02D00448007824184C
:1007700000F0B4F8401BA042FAD370BD0000002086
:10078000F0B5002303249AE02A4601259D402A4023
:100790007ED00E79B607B60F012E01D0022E16D1EB
:1007A00086682746B4465E00B646B7406646BE43F6
:1007B000B446CF687646B74066463743876046689A
:1007C000AE430D79ED06ED0F9D40354345600D7943
:1007D000ED43AD0708D0C5685F002646BE40B5436F
:1007E0008E68BE402E43C6600D79AD07AD0F022D59
:1007F0000ED1DD08AD002D18AC462D6A5E07F60E51
:100800000F27B740BD430F69B7402F4365462F629E
:1008100005685F002646BE40B5430E79B607B60FA1
:10082000BE402E4306604D68AD03AD0F46D09E0816
:10083000264DB6007519AC462D6E9E07F60E0F2795
:10084000B740BD4305273F07B84201D100270FE05D
:100850001F4FB84201D101270AE01E4FB84201D113
:10086000022705E01C4FB84201D1032700E005270D
:10087000B7402F43154D664637662D684E68954341
:10088000F60200D51543114F3D607D68954300E0A9
:1008900014E04E68B60200D515437D600B4D8035DF
:1008A0006E684F689643BF0300D516436E602E688E
:1008B0004F689643FF0300D516432E605B1C0A6801
:1008C0001546DA4000D05FE7F0BD00000018024096
:1008D0000004005000080050000C005001488068DF
:1008E000704700000000002070B502464032537887
:1008F000202B1CD11378012B19D001231370242431
:100900005470046825689D432560046825681E03AB
:10091000B5432560046825680D43256000680168BB
:1009200019430160202050700020107070BD02201B
:1009300070BD70B5024640325378202B1BD113781E
:10094000012B18D0012414702423537003681D68F0
:10095000A5431D6005682B680F263602B3430902C4
:10096000194329600068016821430160202050700C
:100970000020107070BD022070BD4030407870477C
:1009800070B5040006D0254640356878002600285A
:1009900002D005E0012070BD2E70204600F018FA4C
:1009A00024206870206801684908490001600F210F
:1009B0006068090688432168086121688A68012007
:1009C000C00382438A60E1680129A1682FD02122F7
:1009D00092021143226891600121E268C902022A51
:1009E0002268536825D08B43536021684A68124BB4
:1009F0001A434A602168CA688243CA6061692069F3
:100A00000843A169090208432168C860216AE069B6
:100A100008432168086020680168012211430160D1
:100A20006664202068702663AE70002070BD0143AC
:100A3000D0E70B43D8E7000000800002FFB5044672
:100A4000002083B02546403501906A78202A68D17D
:100A500022689269D243120463D52A78012A60D0B1
:100A600001222A7024226A7060648F05BF0DE0683D
:100A700001280AD02C4801213818890288432168AE
:100A80004860FFF72BFF06460CE02848F3E706987E
:100A9000401C07D0FFF722FF811B0698814219D81E
:100AA000002817D02168886989698006C00FC906A7
:100AB000C90F0843EBD020688069069BC043C0067D
:100AC000009617D500222021204601F033F8002897
:100AD00017D107E020206870616C01436164002039
:100AE00028700EE021682020C861687000202870FE
:100AF00007B0F0BD00222021204601F01BF800289D
:100B000001D00120F4E721681020C861216820206D
:100B1000C8610198401C0146019005988142A6D306
:100B2000D8E70220E4E700000028000200200002CD
:100B3000FFB5054604464035687883B0202875D156
:100B40000C98002814D00D98002811D0287801287E
:100B50006CD001202870FFF7C1FE074601220090EB
:100B60001923D103204600F0E5FF002874D103E0EB
:100B70000120400260646FE0222068704020A8706D
:100B8000002666640C9860620D98608566630E9816
:100B90000090019704A90EC9204600F055FF0028D7
:100BA00001D02E7058E0618D3448FF2905D9FF220D
:100BB000228501231B06009006E0618D21850090AF
:100BC000208D0123C2B25B062046049900F09CFFF1
:100BD00000970022042120460E9B00F0ABFF002866
:100BE0003AD12068406A616A0870606A401C60629D
:100BF000208D401E81B22185608D401E6085608DF4
:100C000000281FD000291DD10097002280212046F6
:100C10000E9B00F08FFF00281ED1608DFF2806D9A3
:100C2000FF22228501231B06009607E024E0608D49
:100C300020850096208D0123C2B25B0620460499D0
:100C400000F062FF608D0028C2D13A4620460E991E
:100C500000F0A9FF002802D0012007B0F0BD2068F5
:100C60002021C16120684268054B1A4042606970CA
:100C7000AE702E700020F0E70220EEE70024008026
:100C800000E800FEFFB5054604464035687883B0AD
:100C9000202872D10C98002814D00D98002811D06B
:100CA0002878012869D001202870FFF717FE074631
:100CB000012200901923D103204600F03BFF0028B9
:100CC00071D103E00120400260646CE02120687073
:100CD0004020A870002666640C9860620D986085BC
:100CE00066630E980090019704A90EC9204600F093
:100CF000DBFE002801D02E7055E0608DFF2805D95D
:100D0000FF22228501231B06009606E0608D2085C8
:100D10000096208D0123C2B25B062046049900F0A4
:100D2000F3FE3A4620460E9900F068FF00283AD1BB
:100D3000606A216800788862606A401C6062608D29
:100D4000401E6085208D401E80B22085618D002967
:100D50001FD000281DD100970022802120460E9B25
:100D600000F0E8FE00281ED1608DFF2806D9FF2282
:100D7000228501231B06009607E024E0608D208574
:100D80000096208D0123C2B25B062046049900F034
:100D9000BBFE608D0028C4D13A4620460E9900F073
:100DA00002FF002802D0012007B0F0BD20682021FA
:100DB000C16120684268054B1A4042606970AE709C
:100DC0002E700020F0E70220EEE7000000E800FEB1
:100DD00010B586B0044614216846FFF7A8F91249F9
:100DE000206888421ED1114C606B0121084360636A
:100DF000606B084005900320C00200901220019013
:100E00000020029003900620049005206946000708
:100E1000FFF7B6FCE16B012080050143E163E16B64
:100E20000140059106B010BD00580040001002407E
:100E300002488168027889188160704700000020AC
:100E400010B5084800240168821511430160032091
:100E500000F00AF8002801D0012401E000F028F891
:100E6000204610BD0020024070B50F4E002431789E
:100E70000546002915D07D20C000FFF73BF901464B
:100E80000A480068FFF736F900F0EAFB002808D1AD
:100E9000042D06D200222946401E00F01FF875607E
:100EA00000E00124204670BD000000200C0000205E
:100EB00008B509480168012211430160006810402B
:100EC000009005484038C26B01040A43C263C06BFE
:100ED0000840009008BD00004010024010B501F02D
:100EE000A7F910BD10B50F4C21680322520291439F
:100EF00001432160C11FFF39FA390ED10A4806218A
:100F0000006848430949FFF7F5F8401C02E0002853
:100F100005D0401E61694905F9D4002010BD0320A9
:100F200010BD0000007000400C00002040420F0087
:100F3000F8B50446006800264D4D800358D54C484E
:100F400000274038C06BC00009D449484038C26B04
:100F500001040A43C263C06B084001270090454862
:100F60000168821511430160FFF7B8FC009005E0AD
:100F7000FFF7B4FC0099401A022825D83D480068C4
:100F8000C005F5D5E8690321090208400FD0616961
:100F900081420CD0E86903210902EA6988430121F2
:100FA00009040A43EA61EA698A43EA61E861C00721
:100FB0000FD0FFF793FC009008E0FFF78FFC00993B
:100FC000411A2D48814201D9032609E0E8698007CA
:100FD000F3D5E86903210902884361690843E861A0
:100FE000002F05D022484038C26B01048A43C263F7
:100FF0002078C00705D068696168800880000843D0
:1010000068612078800606D5686903210903884352
:10101000A168084368612088400411D56869216986
:10102000800080080843686101212069890788429F
:1010300006D10F484038C168012212041143C16033
:101040002088000512D56869032189038843E16877
:10105000084368610121E0688903884206D1044899
:101060004038C168012212041143C1603046F8BD06
:10107000401002400070004088130000F8B50F4691
:10108000060043D04D4D28684007400FB84213D2A8
:101090002868C008C00038432860FFF71FFC0446DA
:1010A00005E0FFF71BFC011B4548814261D8286819
:1010B0004007400FB842F4D13068424C81070DD54B
:1010C000400704D5A068072109030843A060A06871
:1010D0000F2109028843B1680843A0603078C00737
:1010E00032D0706801280AD002280BD000280FD017
:1010F0003449403103280ED0C969890704E02168CA
:10110000890301E021688901002906DB0120F8BD7F
:1011100021684905F8E7096AEFE7A168C908C9002D
:101120000143A160FFF7DAFB009006E0FFF7D6FB72
:101130000099411A224881421BD8A06838210840F2
:101140007168C9008842F1D128684007400FB84251
:1011500017D91A480168C908C90039430160FFF767
:10116000BDFB054607E0FFF7B9FB411B1448814270
:1011700001D90320F8BD114800684007400FB8426C
:10118000F1D13078400706D5A068072109038843CC
:10119000F1680843A06000F031F8A1683C22890999
:1011A0001140094A515CC906C90EC8400749086088
:1011B00007480068FFF758FEF8BD00000020024015
:1011C0008813000000100240702D00080C00002061
:1011D000040000200648074900688968064A490457
:1011E000490F8900515CC906C90EC840704700000C
:1011F0000C00002000100240B02D000810B5204C5B
:10120000A068204A8006400F16D0A0688006410FD3
:10121000501001290FD0A1688906490F022912D068
:10122000A0688006400F042823D0A0688006400FE5
:10123000032821D0002010BD206801218004400F28
:101240008140104612E0E1688B07E1689B0F490678
:10125000490F491C032B00D01046FEF74BFFE168F5
:101260004904490E4843E168490F491CFEF742FF13
:1012700010BD0120C00310BD7D20000210BD000084
:10128000001002400024F400F8B504007ED020785D
:101290003827C007E94D002846D0A868E9683840DB
:1012A0008907890F102802D008280BD001E00329F4
:1012B00008D001206268000482420AD129680143F3
:1012C000296015E0286880032ED560680028DDD0ED
:1012D0002AE0052301211B0489049A422A6802D1CD
:1012E0000A432A60EAE782432A6028688843286024
:1012F000606800280CD0FFF7F1FA064604E0FFF71B
:10130000EDFA801B642873D828688003F7D50BE0BA
:10131000FFF7E4FA064604E0FFF7E0FA801B6428D2
:10132000F1D828688003F7D42078800769D5A868A9
:10133000E96838408A070721920FC902102802D0B5
:10134000002813D001E0022A10D0E068002846D01F
:10135000286888432169084328602868FF210131F3
:1013600008432860FFF7BAFA06462CE02A685205BF
:1013700002D5E268002A89D06A687F231B029A435B
:1013800063691B021A436A60002800E08DE00ED1F9
:10139000286888432169084328602868012180045F
:1013A000400F8140A648FEF7A5FEA6490860A64862
:1013B0000068FFF759FD002877D122E0FFF78EFA89
:1013C000801B02289FD828684005F7D568687F21D0
:1013D00009028843616909020843686011E02968CD
:1013E000FF20013081432960FFF778FA064605E0C7
:1013F00098E0FFF773FA801B022884D8286840051C
:10140000F7D42078914E00072ED5A8688006400FAB
:1014100003280AD0A0690028306A16D001210843A9
:101420003062FFF75BFA07460BE0306A80071BD596
:10143000A06900289FD017E0FFF750FAC01B0228D0
:1014400070D8306A8007F7D50EE04008400030625F
:10145000FFF744FA074604E0FFF740FAC01B0228F2
:1014600060D8306A8007F7D4207840076CD5A86828
:1014700000278006400F042818D0E86BC00008D46D
:10148000E96B012000070143E963E96B0140012793
:1014900000916F480168C90519D40168821511438C
:1014A0000160FFF71BFA00900DE083E0F069800710
:1014B0004AD5A06800287DD046E0FFF70FFA0099D2
:1014C000401A02282ED862480068C005F5D5A168E8
:1014D000012910D004200529F16911D049084900DB
:1014E000F161F1698143F161A068002816D0FFF72E
:1014F000F5F900900EE0F06901210843F061F3E78F
:101500000143F161F7E7FFF7E9F90099411A514802
:10151000814265D8F0698007F5D50EE0FFF7DEF966
:10152000009007E05CE0FFF7D9F90099411A4948BB
:10153000814255D8F0698007F5D4002F04D0E96BBB
:10154000012000078143E963E069002873D0A9689E
:101550008906490F02294DD001263606022828683F
:1015600005D0B0432860FFF7B9F904463AE0B0432C
:101570002860FFF7B3F9074604E0FFF7AFF9C01B97
:1015800002282DD828688001F7D4616A206AA26AEF
:101590000843E16A120211430843216B0843E968DA
:1015A0002D4A11400843E860286830432860E86805
:1015B000012100E03DE009070843E860FFF78EF9EC
:1015C000044604E0FFF78AF9001B022808D82868BF
:1015D0008001F7D52FE0FFF781F9001B022801D920
:1015E0000320F8BD28688001F5D4E8681B4908404D
:1015F000E86020E00128F4D0E868226A8107890FBA
:10160000914216D17021626A0140914211D17F212D
:10161000A26A09020140120291420AD11F21490423
:10162000E26A0140914204D1400F216B4007884299
:1016300001D00120F8BD0020F8BD000000100240DC
:101640000024F4000C0000200400002040100240A0
:1016500000700040881300008C80C11FFCFFFEEF6B
:10166000094910B5401E884201D9012010BD074C20
:1016700060610321081F00F0DBFD0020A06107204E
:101680002061002010BD0000FFFFFF0000E000E02F
:1016900010B5014680310A79012A15D001220A715C
:1016A00024228A6002681368146864086400146065
:1016B0000122520793430022426600680360202003
:1016C00088600A71104610BD022010BD70B5044636
:1016D00005468034207901281AD001202071242069
:1016E000A0602868066802685208520002602868F4
:1016F000826807235B069A430A438260284600F00B
:101700005DFB286806602020A0600020207170BD6D
:10171000022070BD70B5044605468034207901284A
:1017200019D0012020712420A06028680668026872
:1017300052085200026028688268D200D2080A4328
:101740008260284600F03AFB286806602020A060EE
:101750000020207170BD022070BD70B5040005D05E
:1017600025468035A868002802D006E0012070BD1B
:1017700000202871204600F027F82420A860206867
:101780000168490849000160A06A002802D020468B
:1017900000F036FB204600F027FC0128E7D0206847
:1017A00041680922D20291434160206881682A225F
:1017B0009143816020680168012211430160204645
:1017C00000F084FB70BD000010B58CB004461421FD
:1017D0006846FEF7ACFC182105A8FEF7A8FC1649E0
:1017E0002068884225D1012000240590069405A890
:1017F000FFF79EFB002801D0FEF7AEFF0F480268FE
:10180000012189030A430260006808400B900B48DD
:101810004038426B02210A434263406B6A460840EB
:101820000B90C02013C20394694605480494FEF748
:10183000A7FF0CB010BD000000380140401002406E
:1018400000040050FFB5064604468036B06883B0F9
:101850000D46202802D0022007B0F0BD002D0CD08C
:101860000598002809D00120A1680003814206D113
:101870002069002803D1E80701D00120ECE700200F
:1018800030612120B060FFF729F8019027464037EA
:101890000598B8820598F8820120A168000381426A
:1018A00002D12069002802D00295002515E0002011
:1018B000029012E000228021204600F049FC00281E
:1018C00018D10298002819D02168007888620298FF
:1018D000401C0290F88A401EF882F88A019B00287A
:1018E00006980090E6D100224021204600F030FC0E
:1018F00000280AD02020B0600320ADE728882168A6
:10190000C005C00D8862AD1CE4E72020B060002057
:10191000A2E7FEE701688A69D243920701D4002258
:101920008A6200688169C943C90703D081690122BD
:101930001143816170470000F7B50446006882B02A
:10194000816900262746C90640373546009200299E
:1019500045DA1021C16132E00398401C2FD0FEF718
:10196000BDFF0099411A0398814201D8002826D171
:1019700020684168012292031140BA788369DB43F1
:101980001B0417D401239B03994213D0202A11D0A2
:10199000416819434160FEF7A1FF00900AE0FEF79D
:1019A0009DFF01460098081A192803D920200543F5
:1019B000012604E020688069C0438006EFD42068D7
:1019C0008069C043800602D5002EC5D004E0002EF9
:1019D00002D121682020C861042005430126216826
:1019E0008869C20504D5012215431202CA61012685
:1019F000410508D508210D43CA012168CA610126A5
:101A0000800502D40AE0800506D50220054321683E
:101A10000002C861012601E0002E0FD02046FFF72A
:101A200079FF20684168074A11404160606C284393
:101A30006064202078700020B8703870304605B09F
:101A4000F0BD000000E800FEF8B504461646154853
:101A50001D46DAB20090079F0023204600F054F89C
:101A60003A462046069900F0C9F8002818D12846C1
:101A7000F5B2012809D02168300A88623A4620462A
:101A8000069900F0BBF800280AD12068856200970B
:101A9000002240212046069B00F04CF8002800D090
:101AA0000120F8BD00200080F8B504461646154810
:101AB0001D46DAB2C3020090079F204600F024F8CA
:101AC0003A462046069900F099F8002818D1284691
:101AD000F5B2012809D02168300A88623A462046CA
:101AE000069900F08BF800280AD1206885620097DB
:101AF000002280212046069B00F01CF8002800D020
:101B00000120F8BD00200080890510B5890D120460
:101B10001143029C19430268214349005068490857
:101B2000630D034C234398430843506010BD0000ED
:101B3000FF63FF03F8B51D4617460E46044626E030
:101B400029462046069AFFF7F7FE002801D001201B
:101B5000F8BD681C1BD0FEF7C1FE0699401AA842CA
:101B600001D8002D13D120688169304688430CD0FC
:101B70000020B8420BD1616C2020014361644034E5
:101B800060700020A0702070E1E70120F1E720687C
:101B900081693046884304D00020B842D0D000206C
:101BA000F8BD0120F9E770B516460D4604461EE063
:101BB000324629462046FFF7BFFE002801D001200B
:101BC00070BDFEF78BFE801BA84201D8002D0ED100
:101BD00020688069C043800609D5616C20200143DC
:101BE0006164403460700020A0702070E7E72068D6
:101BF0008069C0438006DBD4002070BD70B51646F6
:101C00000D46044620E0324629462046FFF794FE62
:101C1000002801D0012070BD681C15D0FEF75EFEC3
:101C2000801BA84201D8002D0ED120688069C043D6
:101C3000800709D5616C20200143616440346070E5
:101C40000020A0702070E5E720688069C04380070D
:101C5000D9D4002070BD000008B50848426B0221AD
:101C60000A434263426B0A400092416B01221143D6
:101C70004163406B1040009008BD0000001002401E
:101C800010B513481149016012494160002181607B
:101C90000161416181610122C161C2600162FEF79F
:101CA0006FFE002801D0FEF757FD00210848FEF71F
:101CB0001BFE002801D0FEF74FFD00210448FEF76F
:101CC00038FE002801D0FEF747FD10BD0058004047
:101CD000140000204713300010B518481649016061
:101CE000E1214902416000218160C160016181619F
:101CF000C16101620C22416242618162FFF72DFDE8
:101D0000002801D0FEF728FD00210C48FFF702FD56
:101D1000002801D0FEF720FD00210848FFF7D6FC7F
:101D2000002801D0FEF718FD0448FFF7B1FC002899
:101D300001D0FEF711FD10BD003801406800002001
:101D4000FEE77047704710B5FFF772F810BD30B569
:101D500091B034216846FEF7EAF9002501200D957F
:101D60000E950F9540021095FFF7BCF80224E00194
:101D700003900094402005900A200A9020040B90C4
:101D800003200794400704950C9009950894684631
:101D9000FFF77AFA002801D072B6FEE707200DA9F6
:101DA00031C101210DA81095FFF768F9002801D075
:101DB00072B6FEE711B030BD70470000F8B50446BA
:101DC000416E4034002915D000688168806809019F
:101DD0004D0F0A4E400F3746315C083F385CC0005B
:101DE000FEF788F96085785D715DC000FEF782F9C5
:101DF0002085F8BD01206085FAE70000682D000805
:101E000010B5018D090707D501684A680123DB0376
:101E10009A43836B1A434A60018DC90707D0016852
:101E20004A6801235B049A43C36A1A434A60018DDE
:101E3000890707D501684A6801231B049A43036B8D
:101E40001A434A60018D490707D501684A68012392
:101E50009B049A43436B1A434A60018DC90607D518
:101E60000268916801231B039943C36B1943916076
:101E7000018D890607D501688A6801235B039A43AF
:101E8000036C1A438A60018D490612D503685A68AB
:101E900001210905446C8A4322435A60426C8A42FC
:101EA00007D10268516803235B059943836C19438A
:101EB0005160018D090607D501684A680123DB04DA
:101EC000C06C9A4302434A6010BD0000FEB505464F
:101ED0000026803504462E61FEF700FD0190206843
:101EE000006820270007002817DA25480090002204
:101EF00039042046019B00F02BF900280DD0EFF3A8
:101F00001080012181F3108821680A6880239A4398
:101F10000A6080F31088AF6028E0206800684007FE
:101F200027D5174800900121002289052046019BF2
:101F300000F00EF900281CD0EFF31080012181F38E
:101F4000108821680A68FF2321339A430A6080F3CE
:101F50001088EFF31080012181F3108821688A68CE
:101F6000520852008A6080F31088EF602E710320BF
:101F7000FEBDAF60EF60E66626672E710020FEBDF5
:101F8000FFFFFF0110B5EFF31081012282F31088EB
:101F900002681368FF242134A343136081F310887F
:101FA000EFF31081012282F31088026893680D4CD0
:101FB0002340936081F31088C16E01290BD1EFF3A8
:101FC0001081012282F31088026813681024A34351
:101FD000136081F3108820228C210A500021C166F1
:101FE000416710BDFEFFFFEFF8B504468068216928
:101FF000E2690843616900251143226808431168BA
:102000004B4B1940014311602068416803221203C1
:102010009143E26811434160A169206A0843216845
:102020008A68444B1A4002438A602068C16A626A27
:10203000090909011143C1623F492068884211D151
:102040003E4840698007800F0FD0012806D0022843
:1020500002D003280BD103E0022109E0042107E0AC
:10206000082105E03649884201D1002100E0102115
:102070000120E369C003334A334E344F834227D1F2
:10208000002906D0022907D0042907D008293FD10A
:1020900008E0FFF79FF803E0104603E0FFF7AEF813
:1020A00000283AD0616A4900715AFEF723F8616846
:1020B00040004A088018FEF71DF801461039B94261
:1020C00026D82249491C01400007400F084322E05E
:1020D000002906D0022907D0042907D0082917D1E2
:1020E00008E0FFF777F803E0104603E0FFF786F813
:1020F000002812D0616A4900715AFDF7FBFF616840
:102100004A088018FDF7F6FF01461039B94201D997
:10211000012502E080B22168C860204601214030DC
:102120004185018500206067A0672846F8BD000052
:10213000F369FFCFFFF4FF11003801404010024067
:10214000004400400024F400482D0008EFFF000088
:10215000FFB581B005460E46044680350A9F32E041
:10216000781C30D0FEF7BAFB0499401AB84218D850
:10217000002F16D020680168490724D5802E22D070
:10218000402E20D0C169C94309070CD40826066235
:102190002046FFF7F7FE2E6100202871012005B0D0
:1021A000F0BD0320FBE7C069C04300050BD401204C
:1021B0002168C00208622046FFF7E4FE2020286163
:1021C00000202871EDE72068C1693046884305D0BA
:1021D000002103988142C3D00020E0E70121F8E705
:1021E0000FB410B503A9044B044A029800F00CF98F
:1021F00010BC08BC04B01847452B00081000002094
:102200002021020C01D010211046020A01D01046F4
:102210000839020901D01046091F820801D0104672
:10222000891E420801D0881E7047081A70470000B6
:102230008307FF22DB0E9A408907090E9940002888
:1022400008DB830809489B001B1818689043084363
:10225000186070470007000F0838830804489B0087
:102260001B18D86990430843D861704700E400E028
:1022700000ED00E002E008C8121F08C1002AFAD1F0
:1022800070477047002001E001C1121F002AFBD1F6
:1022900070470000F0B51FB486B00998089A030D86
:1022A0000021024314D05148514A181850430514D4
:1022B0001198012810981AD0281A401C00264D4F5A
:1022C0004D49009601910490002812DA444211E031
:1022D0001198012449A3012801D11098C1430698FF
:1022E000119A84600360C26041600BB0F0BD40424F
:1022F000E4E70446210500203F4A001C51410391B8
:10230000029012E0E00707D032463B460199009860
:10231000FDF724FF0191009032463B4610461946D6
:10232000FDF71CFF06460F466410002CEAD1049806
:10233000039B0028029A0999089806DAFDF70EFF18
:10234000019B009AFDF70AFF05E0FDF76FFF019B77
:10235000009AFDF76BFF04460E460022284BFEF75D
:10236000A1F903D80020C043014607E00022254B15
:1023700020463146FEF7C2F8FEF774F9102409E052
:10238000002C0ADB0A220023FDF7E7FF079B30320F
:102390001A55641E02460A43F2D11122641C079B9F
:1023A000121B1C19119B012B03D0012308430ED1D2
:1023B0000AE0084304D0112010900020119077E724
:1023C0001098151A6D1E0BE01098824202DD002352
:1023D0006D1C03E0824201DA00236D1E002BEED05B
:1023E000069811998260C16030C07EE701FCFFFF52
:1023F000104D0000000014400000F03F30000000CD
:102400000000F0430000E03FFFB597B0064600250E
:102410001BE2252876D100242746F749049400E0E2
:102420000443761C32780120203A90400842F7D1CC
:1024300030782A280ED00222307801463039092916
:1024400016D804990A235943303940181443761C8E
:102450000490F1E7189802C804911890002904DA52
:102460000120400304434842049002200443761CA8
:1024700030782E2814D1042004437078761C2A2842
:1024800009D11898761C80C8189009E00A214F439A
:10249000303FC719761C3078014630390929F5D903
:1024A00030786C2810D006DC4C281AD068280ED062
:1024B0006A2817D104E0742813D07A2812D110E0CA
:1024C0000120400504430CE00121090501E003213E
:1024D00009050C437178814203D1012000052418BD
:1024E000761C761C307866280BD013DC58287DD0FB
:1024F00009DC00287BD04528F6D04628F4D04728B0
:102500001AD1A9E118E0632835D0642870D0652875
:1025100012D1A1E170286CD008DC6728F1D06928BD
:102520007DD06E280DD06F2806D1BCE073282ED048
:10253000752873D0782859D01A9A199990476D1C2C
:1025400082E16002400F022809D003280DD0042840
:10255000189801680DD00D60001D189074E118984E
:10256000EA1701680D604A60F6E7189801680D8067
:10257000F2E70D70F0E718986A4601781172001DB5
:1025800018900020507202A80090012005E01898D1
:1025900002C8189000200091C04361070ED50021A9
:1025A00001E00199491C0191B94213DA8142F8DB3B
:1025B000019A0099895C0029F3D10BE0002101E028
:1025C0000199491C01918142FADB019A0099895CC9
:1025D0000029F5D1019904981A9B471A21463846DB
:1025E000199A00F099FA4019019903E051E030E19D
:1025F00015E050E0451807E0009800990078491C64
:1026000000911A9A199990470198401E0190401C18
:10261000F2D1214638461A9B199A12E137E00A2076
:102620000021009001916002410F022907D0189A01
:1026300001CA1892C2179446032908D00AE01898D4
:10264000C01DC108C90005C91891944607E000B231
:10265000C2179446042902D140B2C1178C46002209
:102660006146944506DA0A460021404291418C4673
:102670002D2102E0210504D52B216A461173012189
:1026800003E0E10701D02021F7E7029156E00A209C
:102690000AE0102008E010200090002104200443EC
:1026A0000191082703E008200021019100906002B9
:1026B000410F022907D0189A01CA189200229446A5
:1026C000032908D008E01898C01DC108C90005C931
:1026D0001891944603E080B2042900D1C0B20021D1
:1026E000029121072AD531780D91702906D0009AE0
:1026F0001021019B4A401A4305D00EE040216A4652
:102700001173012108E06146014306D030216A4679
:1027100011730D99517302210291009A0821019BB6
:102720004A401A430AD16146014301D1610705D5E8
:1027300030216A46117301217F1E02913178582998
:1027400004D02EA10E910DA90D910DE030A1F9E755
:102750006146019B009AFDF700FE0E9B8C469B5C38
:102760000D9A521E0D92137061460143F0D10D98DF
:1027700005A9081A20300190600703D50120000444
:10278000844300E001270198874201DD381A00E008
:102790000020019900904118029809180498401AE5
:1027A0000490E00306D421461A9B199A049800F07D
:1027B000B3F94519002706E003A81A9AC05D1999D4
:1027C00090476D1C7F1C02988742F5DBE0030CD517
:1027D00021461A9B199A049800F09EF9451904E0C5
:1027E0001A9A3020199990476D1C0099481E009044
:1027F0000029F5DC1FE000000928010030313233E8
:10280000343536373839616263646566000000002C
:102810003031323334353637383941424344454616
:10282000000000000D980D990078491C0D911A9A2E
:10283000199990476D1C0199481E01900029F1DCFF
:102840004DE100F059F94519761C3078002800D088
:10285000DFE528461BB0F0BD600700D406271898B6
:10286000C01DC108C90048680A680831C30FDB07EA
:102870001891190001D09CA108E0210501D59BA168
:1028800004E0E10701D09AA100E09AA14300109171
:1028900030785B0865280CD006DC452809D046282E
:1028A0001DD0472841D141E0662818D067283CD187
:1028B0003CE00021112F01DB112000E0781C019188
:1028C000009008A911A8FFF7E5FC139905910021D4
:1028D000119A15927F1C12980197009150E00120E7
:1028E000C00703900120019008A9009711A8FFF7E5
:1028F000D1FC139A149905920022119B0092129810
:102900001593059A0192002901D0104602E0791C26
:1029100040180190381A01D5019804E04042401E49
:102920000090781C0190C01B029043E0012F00DA58
:1029300001270021112F01DD112000E0384601910F
:10294000009008A911A8FFF7A5FC13990591119A09
:102950000021129815920091019721070CD4059936
:10296000B94201DB019900E00191012904DD159ACA
:10297000491E515C302906D0B84201DA011D05DA42
:102980000121029115E00199491EEDE7002805DCBF
:102990000099411800910199091A03E0019A411C1C
:1029A000914200DD01910099401A401C02900120E3
:1029B000C0070390200706D402990198814202DBE8
:1029C0000020C043029000206946C87707AF01216C
:1029D00003980337C907884224D0022011902B2086
:1029E0001290039800280CDA404203902D20129098
:1029F00007E00A210398FDF77DFB30317F1E03902D
:102A000039701199481E11900029F2DC03980028B2
:102A1000EFD1791E12980870307820210840453097
:102A2000BF1E387006A8C01BC01D03901098007808
:102A3000002800D00120019941180298C0170918F8
:102A4000039809180498401A401E0490E00306D425
:102A500021461A9B199A049800F05EF845191098BF
:102A60000078002803D01A9A199990476D1CE0034A
:102A700024D521461A9B199A049800F04DF845195F
:102A80001CE00098002807DB00990598884203DDC8
:102A90001598405C199901E0199930201A9A9047CD
:102AA00000986D1C401C00900298401E0290002867
:102AB00004D11A9A2E20199990476D1C0199481E2D
:102AC00001900029DDDC05E038781A9A7F1C1999FD
:102AD00090476D1C0399481E03900029F4DC2146A1
:102AE0001A9B199A0498ACE62D0000002B000000F8
:102AF0002000000000000000F8B5044600251E4636
:102B00001746880404D405E039462020B0476D1CE0
:102B1000641EF9D52846F8BDFFB50446002581B0EE
:102B20001E46C80301D5302700E02027880404D5BD
:102B300005E038460399B0476D1C641EF9D5284658
:102B400005B0F0BD13B5044B012269460348FEF7FA
:102B500079FE00981CBD0000FFFF00006800002007
:102B600070B501247D25ED002B4601222146064843
:102B7000FDF764FF002805D0641CE4B2FF2CF3D3FA
:102B8000FF2070BD204670BD140000203EB56423B8
:102B90006C460EC402460123D0210548FDF7C8FF4C
:102BA000040003D0014603A0FFF71AFB20463EBDF8
:102BB0001400002049324320526561642042797438
:102BC0006573204572726F722120636F64653A20CD
:102BD00025640D0A0000000013B584B064230122AF
:102BE00005A96C460EC413460246D0210848FEF7DC
:102BF00049F8040003D0014606A0FFF7F1FA0448A3
:102C0000FDF7BBFE2028FAD1204606B010BD00001B
:102C100014000020493243205772697465204572C0
:102C2000726F722120636F64653A2025640D0A007B
:102C300086B0FEF705F9FFF78AF8FFF70DF8FFF702
:102C40004BF8FFF71DF819A0FFF7CAFAFFF788FF46
:102C500001461AA0FFF7C4FA00F04CF804A800F0EF
:102C60005FF869461420085E00F03CF8FDF761FB50
:102C700006460F4669461220085E00F033F8FDF75D
:102C800058FB04460D4669461020085E00F02AF8FD
:102C9000FDF74FFB0B466946F0C102460DA0FFF75A
:102CA0009FFA6420FDF75AFDD8E70000537973744A
:102CB000656D20426567696E210D0A004932432027
:102CC000416464726573733A203078253032780D30
:102CD0000A0000004163633A20256620256620250E
:102CE000660D0A0010B5FDF719FB0D21C943FDF76C
:102CF00029FA10BD10B501216B20FFF76DFF0921E6
:102D00001920FFF769FF06211A20FFF765FF002150
:102D10001B20FFF761FF00211C20FFF75DFF10BDA6
:102D20001CB50446062269463B20FFF72FFF684684
:102D3000008840BA20806846408840BA6080684673
:102D4000808840BAA0801CBD01000200040006007B
:102D500008000A000C001000200040008000000164
:102D60000101010307010000080402040801010138
:102D70000000000000000000000000000000000053
:102D80000000000000000000000000000000000043
:102D90000100000002000000030000000400000029
:102DA0000600000007000000080000000900000005
:102DB0000000000000000000000000000000000013
:102DC00001000000020000000300000004000000F9
:102DD000F02D0008000000201400000074220008FC
:102DE000042E000814000020EC04000084220008D7
:102DF0000100000004000000000000000024F400B6
:042E000000000000CE
:04000005080000C12E
:00000001FF
