:020000040800F2
:1000000078090020D9000008E91600080B1600083E
:1000100000000000000000000000000000000000E0
:10002000000000000000000000000000C9180008E7
:100030000000000000000000EB160008CB180008CC
:10004000EB00000800000000EB000008EB000008D7
:10005000EB000008EB000008EB000008EB000008D4
:1000600000000000EB000008EB000008EB000008B7
:10007000EB000008EB000008EB00000800000000A7
:10008000EB0000080000000000000000EB0000088A
:1000900000000000EB000008EB000008EB00000887
:1000A000EB000008EB000008EB000008EB00000884
:1000B000EB0000080000000000000000000000004D
:1000C0000448854600F06AFA004800478127000886
:1000D000C046C046780900200448804704480047CD
:1000E000FEE7FEE7FEE7FEE7FEE7FEE73D19000854
:1000F000C100000830B50B46014600202022012433
:1001000009E00D46D5409D4205D31D469540491B4B
:100110002546954040191546521E002DF1DC30BD94
:1001200003460B439B0703D009E008C9121F08C010
:10013000042AFAD203E00B780370401C491C521EBB
:10014000F9D27047D2B201E00270401C491EFBD2C6
:1001500070470022F6E710B513460A4604461946D2
:10016000FFF7F0FF204610BD10B5044605E00B7800
:100170000370401C002B00D0491C521EF7D22046B1
:1001800010BDC20FD207400040080BD0C10D07239D
:10019000DB01C91840020905400A1143C2084007A3
:1001A00011437047002001467047F0B51FB4064662
:1001B000002082B005464024019100901BE0019987
:1001C00022460F46304600F00BFA049A059B801A2F
:1001D000994110D310461946224600F0F1F9361A1B
:1001E0008F410197224601200021009F00F0E8F98D
:1001F00038184D4100902046641E0028DFDC019B2A
:1002000000982946324607B0F0BD0000F0B5074619
:100210000846584087B0C00F049048000E46590069
:1002200040084908BC1A884105D2384631461E4666
:1002300017460B4602465800400810434DD0300D7B
:10024000039040055900400D490D0590401A029059
:10025000402873DA18030121000B090508430190B7
:1002600004980092002806D01146019A49420020C5
:10027000904100910190029840210A1A019900983A
:1002800000F09EF905460C466B4607CB00F0B9F925
:10029000C0197141039A0E0D0023D71756401A4614
:1002A0007A40164344D0049A002A2DD0029A012A9B
:1002B000039A15DC1205C01A914101263605001C6F
:1002C0007141D20F059ED2070093019202962A46F1
:1002D000234600F0B6F907B0F0BD38463146FAE7DC
:1002E0001605234A0F46B218C01AB7410121090565
:1002F000001C4F4100187F41114618187941E20F48
:1003000010436D19644113E0E2076D08154364085A
:10031000C2071443039A01261205C01A91413605FB
:10032000001C7141CE07400830434908C0185141B4
:100330002A46234600F078F9CDE7FFE7049801222A
:100340004000C117121A00238B4104983146C4178C
:10035000381AA141EEE730B40124E407634030BC11
:1003600054E730B40124E407614030BC4EE700009C
:100370000000E0FFF0B51FB488B00B990998002485
:1003800048400999C00F490049080991C0070B99D5
:100390000090490049080B9109990898A64608431E
:1003A0001CD00B990A98084318D0099801244000E2
:1003B000420D4800410D099824050003000B20431D
:1003C00009900B980003000B20430B9050181C4918
:1003D0004018002201901446104605E00020014616
:1003E0000DB0F0BD032801DA034600E003239C466C
:1003F000C11A0AAE0AE05F0008ADED5B4F00F75B83
:100400007D430027AA187C41491C5B1E6145F2DD33
:10041000410004AB5A522104120C0A43240C401C24
:100420000828DFDB01980290009970460191009046
:10043000059B049A0799069800F003F9D0E700009D
:100440000DFCFFFFF0B50C465C4085B0E40FE407FF
:1004500003944C000026640859009446490802465B
:100460000296224321D062460A431ED06200570DF5
:100470004A000E032303550D012402462C4924058E
:10048000781B1B0B360B4018234326436146009014
:100490001C46501AB44103D30098401C009002E05F
:1004A000921800985B41002803DA0020014605B04D
:1004B000F0BD0020012109050746864611E064468B
:1004C0001D46141BB54106D36546521BB341744605
:1004D00007430C43A646CD07400849082843921815
:1004E0005B4105460D43EAD11046184313D06046E0
:1004F000194650407140084306D06046101AB34177
:1005000006D20122002306E000220123DB0702E0DD
:100510000122D2435310009874460105381C6141F2
:10052000029C039D0019694100F07EF8BFE70000BE
:10053000FD0300004A0009030123090B1B051943B1
:100540000A4B10B5520D9A4202DA0020014610BD46
:10055000064B34339A4203DC9A1A00F041F810BD7E
:10056000034BD21800F02CF810BD0000FF03000070
:10057000CDFBFFFF10B5002904DB0124E407404256
:100580008C412146002B04DB1C460123DB07524231
:10059000A341994200D1904210BD0000064C0125B4
:1005A000064E05E0E36807CC2B430C3C984710341B
:1005B000B442F7D3FFF788FD602F0008802F0008B2
:1005C00010B5202A04DB0146203A9140002010BDDE
:1005D000914020239C1A0346E3401943904010BDEC
:1005E00010B5202A04DB0846203AD040002110BD77
:1005F0000B46D340D0402024A21A9140084319460C
:1006000010BD10B5202A06DBCB170846203A104152
:10061000C1170B4306E00B461341D0402024A21A19
:1006200091400843194610BD10B5002B08DA00248C
:10063000401C614192185B411A4301D140084000BF
:1006400010BDF0B51FB482B005460C0003D00846BB
:1006500001F092FB02E001F08FFB20300246009097
:1006600021462846FFF7ACFF049B059A04460F4637
:1006700018431143084314D0184610431BD0009868
:1006800040210A1A18460599FFF7AAFF05460E46AB
:10069000009A05990498FFF793FF084305D00120BD
:1006A00004E02046394607B0F0BD0020C1170543DD
:1006B0000E432C43374300990E986305401A790581
:1006C000E40A00220C43FD0A0A3002D5002001464C
:1006D000E9E70105101969410C9C0D9D001969415C
:1006E000FFF7A2FFDFE772B6FEE7000070B5044631
:1006F00000F0BCF80546601C02D0044800782418BD
:1007000000F0B4F8401BA042FAD370BD00000020F6
:10071000F0B5002303249AE02A4601259D402A4093
:100720007ED00E79B607B60F012E01D0022E16D15B
:1007300086682746B4465E00B646B7406646BE4366
:10074000B446CF687646B74066463743876046680A
:10075000AE430D79ED06ED0F9D40354345600D79B3
:10076000ED43AD0708D0C5685F002646BE40B543DF
:100770008E68BE402E43C6600D79AD07AD0F022DC9
:100780000ED1DD08AD002D18AC462D6A5E07F60EC1
:100790000F27B740BD430F69B7402F4365462F620F
:1007A00005685F002646BE40B5430E79B607B60F12
:1007B000BE402E4306604D68AD03AD0F46D09E0887
:1007C000264DB6007519AC462D6E9E07F60E0F2706
:1007D000B740BD4305273F07B84201D100270FE0CE
:1007E0001F4FB84201D101270AE01E4FB84201D184
:1007F000022705E01C4FB84201D1032700E005277E
:10080000B7402F43154D664637662D684E689543B1
:10081000F60200D51543114F3D607D68954300E019
:1008200014E04E68B60200D515437D600B4D80354F
:100830006E684F689643BF0300D516436E602E68FE
:100840004F689643FF0300D516432E605B1C0A6871
:100850001546DA4000D05FE7F0BD00000018024006
:100860000004005000080050000C0050014880684F
:100870007047000000000020024881680278891853
:10088000816070470000002010B50848002401680E
:10089000821511430160032000F00AF8002801D0FE
:1008A000012401E000F028F8204610BD002002409D
:1008B00070B50F4E002431780546002915D07D20F3
:1008C000C000FFF717FC01460A480068FFF712FC5A
:1008D00000F042FD002808D1042D06D2002229464E
:1008E000401E00F01FF8756000E00124204670BD36
:1008F000000000200C00002008B509480168012212
:100900001143016000681040009005484038C26BF8
:1009100001040A43C263C06B0840009008BD000098
:100920004010024010B501F03FFA10BD10B50F4C59
:10093000216803225202914301432160C11FFF3904
:10094000FA390ED10A480621006848430949FFF7E1
:10095000D1FB401C02E0002805D0401E616949051A
:10096000F9D4002010BD032010BD0000007000402D
:100970000C00002040420F00F8B504460068002635
:100980004D4D800358D54C4800274038C06BC000FF
:1009900009D449484038C26B01040A43C263C06BA2
:1009A0000840012700904548016882151143016005
:1009B000FFF75CFF009005E0FFF758FF0099401A31
:1009C000022825D83D480068C005F5D5E86903210F
:1009D000090208400FD0616981420CD0E869032107
:1009E0000902EA698843012109040A43EA61EA69C4
:1009F0008A43EA61E861C0070FD0FFF737FF009034
:100A000008E0FFF733FF0099411A2D48814201D9D0
:100A1000032609E0E8698007F3D5E86903210902A4
:100A2000884361690843E861002F05D022484038B7
:100A3000C26B01048A43C2632078C00705D068698D
:100A4000616880088000084368612078800606D5C8
:100A50006869032109038843A16808436861208805
:100A6000400411D5686921698000800808436861E5
:100A7000012120698907884206D10F484038C168A2
:100A8000012212041143C1602088000512D5686953
:100A9000032189038843E168084368610121E06814
:100AA0008903884206D104484038C16801221204F3
:100AB0001143C1603046F8BD401002400070004054
:100AC00088130000F8B50F46060043D04D4D286846
:100AD0004007400FB84213D22868C008C00038430E
:100AE0002860FFF7C3FE044605E0FFF7BFFE011BC9
:100AF0004548814261D828684007400FB842F4D188
:100B00003068424C81070DD5400704D5A068072105
:100B100009030843A060A0680F2109028843B16857
:100B20000843A0603078C00732D0706801280AD02E
:100B300002280BD000280FD03449403103280ED0B2
:100B4000C969890704E02168890301E021688901F6
:100B5000002906DB0120F8BD21684905F8E7096A8C
:100B6000EFE7A168C908C9000143A160FFF77EFE55
:100B7000009006E0FFF77AFE0099411A2248814270
:100B80001BD8A068382108407168C9008842F1D19B
:100B900028684007400FB84217D91A480168C908A9
:100BA000C90039430160FFF761FE054607E0FFF722
:100BB0005DFE411B1448814201D90320F8BD114854
:100BC00000684007400FB842F1D13078400706D5A1
:100BD000A068072109038843F1680843A06000F07A
:100BE00031F8A1683C2289091140094A515CC906C3
:100BF000C90EC8400749086007480068FFF758FE5B
:100C0000F8BD0000002002408813000000100240E0
:100C1000002F00080C0000200400002006480749AF
:100C200000688968064A4904490F8900515CC90671
:100C3000C90EC840704700000C00002000100240A0
:100C4000402F000810B5204CA068204A8006400FB5
:100C500016D0A0688006410F501001290FD0A1685E
:100C60008906490F022912D0A0688006400F042887
:100C700023D0A0688006400F032821D0002010BD9B
:100C8000206801218004400F8140104612E0E16895
:100C90008B07E1689B0F4906490F491C032B00D0C5
:100CA0001046FFF727FAE1684904490E4843E16816
:100CB000490F491CFFF71EFA10BD0120C00310BDEB
:100CC0007D20000210BD0000001002400024F4004E
:100CD000F8B504007ED020783827C007E94D0028F9
:100CE00046D0A868E96838408907890F102802D0E3
:100CF00008280BD001E0032908D001206268000415
:100D000082420AD129680143296015E028688003DE
:100D10002ED560680028DDD02AE0052301211B04C0
:100D200089049A422A6802D10A432A60EAE7824388
:100D30002A60286888432860606800280CD0FFF784
:100D400095FD064604E0FFF791FD801B642873D8EB
:100D500028688003F7D50BE0FFF788FD064604E01E
:100D6000FFF784FD801B6428F1D828688003F7D43E
:100D70002078800769D5A868E96838408A07072184
:100D8000920FC902102802D0002813D001E0022AD5
:100D900010D0E068002846D02868884321690843BD
:100DA00028602868FF21013108432860FFF75EFDB5
:100DB00006462CE02A68520502D5E268002A89D04E
:100DC0006A687F231B029A4363691B021A436A60A5
:100DD000002800E08DE00ED128688843216908438F
:100DE0002860286801218004400F8140A648FFF751
:100DF00081F9A6490860A6480068FFF759FD002858
:100E000077D122E0FFF732FD801B02289FD82868A7
:100E10004005F7D568687F210902884361690902A6
:100E20000843686011E02968FF2001308143296090
:100E3000FFF71CFD064605E098E0FFF717FD801B55
:100E4000022884D828684005F7D42078914E0007FE
:100E50002ED5A8688006400F03280AD0A069002874
:100E6000306A16D0012108433062FFF7FFFC0746C5
:100E70000BE0306A80071BD5A06900289FD017E0DF
:100E8000FFF7F4FCC01B022870D8306A8007F7D542
:100E90000EE0400840003062FFF7E8FC074604E03F
:100EA000FFF7E4FCC01B022860D8306A8007F7D443
:100EB000207840076CD5A86800278006400F0428DA
:100EC00018D0E86BC00008D4E96B0120000701438B
:100ED000E963E96B0140012700916F480168C9058A
:100EE00019D40168821511430160FFF7BFFC00901F
:100EF0000DE083E0F06980074AD5A06800287DD026
:100F000046E0FFF7B3FC0099401A02282ED8624849
:100F10000068C005F5D5A168012910D00420052975
:100F2000F16911D049084900F161F1698143F1612A
:100F3000A068002816D0FFF799FC00900EE0F06939
:100F400001210843F061F3E70143F161F7E7FFF79F
:100F50008DFC0099411A5148814265D8F06980079B
:100F6000F5D50EE0FFF782FC009007E05CE0FFF7AC
:100F70007DFC0099411A4948814255D8F0698007A3
:100F8000F5D4002F04D0E96B012000078143E96309
:100F9000E069002873D0A9688906490F02294DD05D
:100FA000012636060228286805D0B0432860FFF7DE
:100FB0005DFC04463AE0B0432860FFF757FC074663
:100FC00004E0FFF753FCC01B02282DD828688001DD
:100FD000F7D4616A206AA26A0843E16A12021143E7
:100FE0000843216B0843E9682D4A11400843E86033
:100FF000286830432860E868012100E03DE00907E7
:101000000843E860FFF732FC044604E0FFF72EFCDB
:10101000001B022808D828688001F7D52FE0FFF7C9
:1010200025FC001B022801D90320F8BD2868800197
:10103000F5D4E8681B490840E86020E00128F4D0B6
:10104000E868226A8107890F914216D17021626A8D
:101050000140914211D17F21A26A0902014012028E
:1010600091420AD11F214904E26A0140914204D110
:10107000400F216B4007884201D00120F8BD0020BD
:10108000F8BD0000001002400024F4000C00002015
:10109000040000204010024000700040881300004F
:1010A0008C80C11FFCFFFEEFF8B504000CD0606A15
:1010B000002500280AD02561656126464036A562D4
:1010C000707F002808D00BE00120F8BD6168C81FC0
:1010D000FD38F2D0E561F0E73577204600F05CF8A6
:1010E0000222727720680168402399430160072338
:1010F000E1681B02994201D9002001E001200003B0
:101100000F273F02B94202D0994200D0A562FF23C7
:101110006168053319402127A368BF023B4019438A
:1011200023691340227D1943D207D20F11430123B3
:10113000A2695B021A401143E26938231A40114345
:10114000226A80231A401143A26A9B011A4011436C
:1011500022681160A1690422090C1140626A1023FF
:101160001A401143626B08231A4011430F23E268AF
:101170001B021A4011430122120310400143206850
:1011800041602068C16952109143C1612566012008
:1011900070770020F8BD000010B586B00446142119
:1011A0006846FEF7D6FF1249206888421DD11148D3
:1011B000026881140A4302600068084005900D48E7
:1011C0004038416B012211434163406B6946104036
:1011D0000590C22000900220019000200290039010
:1011E000049005200007FFF793FA06B010BD000039
:1011F0000030014040100240FFB50546044640352E
:10120000287F002781B01646012809D001202877C1
:10121000FFF72CFB0090687F012804D0022797E09D
:10122000022005B0F0BD0298002874D0002E72D0C4
:1012300003206877002020660299A163A687E687CD
:101240002064A880E8802065E0640122A068D203C1
:101250004021904208D1206802688A4302602068D9
:1012600002680B021A43026020680268520602D428
:1012700002680A4302600721E06809028842606848
:1012800028D9002801D0012E1ED1A06B216800882A
:10129000C86006E020688168890709D5A16B0988C4
:1012A000C160A06B801CA063E08F401EE0870BE054
:1012B000FFF7DCFA0099411A0498814202D3401CDE
:1012C00002D005E0002803D0E08F0028E2D128E01A
:1012D00003273BE0002801D0012E1FD1A06B21681D
:1012E0000078087306E020688168890709D5A16B3A
:1012F00009780173A06B401CA063E08F401EE0875B
:101300000CE0FFF7B3FA0099411A0498814203D325
:10131000401C03D0DCE717E00028D9D0E08F00287C
:10132000E1D12046009A049900F0E0F9002801D0AC
:1013300020202066A068002803D12068C16880684A
:101340000090206E002801D0012701E0012068777D
:1013500000202877384664E7094910B5401E8842C6
:1013600001D9012010BD074C60610321081F00F066
:101370001BFD0020A06107202061002010BD00009F
:10138000FFFFFF0000E000E010B5014680310A7960
:10139000012A15D001220A7124228A60026813688A
:1013A0001468640864001460012252079343002209
:1013B000426600680360202088600A71104610BDF4
:1013C000022010BD70B504460546803420790128FE
:1013D0001AD0012020712420A060286806680268C5
:1013E0005208520002602868826807235B069A430D
:1013F0000A438260284600F0A3FA2868066020208D
:10140000A0600020207170BD022070BD70B5044640
:10141000054680342079012819D00120207124202C
:10142000A0602868066802685208520002602868B6
:101430008268D200D2080A438260284600F080FA0F
:10144000286806602020A0600020207170BD022066
:1014500070BD70B5040005D025468035A868002809
:1014600002D006E0012070BD00202871204600F067
:1014700027F82420A8602068016849084900016015
:10148000A06A002802D0204600F07CFA204600F036
:101490006DFB0128E7D0206841680922D202914300
:1014A0004160206881682A22914381602068016838
:1014B000012211430160204600F0CAFA70BD00000D
:1014C00010B58CB0044614216846FEF742FE182180
:1014D00005A8FEF73EFE16492068884225D1012066
:1014E00000240590069405A8FFF746FA002801D0CD
:1014F000FFF7F9F80F480268012189030A430260E7
:10150000006808400B900B484038426B02210A43A8
:101510004263406B6A4608400B90C02013C203949C
:10152000694605480494FFF7F3F80CB010BD0000BD
:10153000003801404010024000040050FFB506464C
:1015400004468036B06883B00D46202802D00220C1
:1015500007B0F0BD002D0CD00598002809D001205F
:10156000A1680003814206D12069002803D1E80761
:1015700001D00120ECE7002030612120B060FFF7AE
:1015800075F90190274640370598B8820598F8828A
:101590000120A1680003814202D12069002802D005
:1015A0000295002515E00020029012E00022802123
:1015B000204600F08FFB002818D10298002819D08F
:1015C0002168007888620298401C0290F88A401EC8
:1015D000F882F88A019B002806980090E6D1002244
:1015E0004021204600F076FB00280AD02020B06081
:1015F0000320ADE728882168C005C00D8862AD1CB6
:10160000E4E72020B0600020A2E7FEE708B5084824
:10161000426B02210A434263426B0A400092416BD3
:10162000012211434163406B1040009008BD00004F
:101630000010024010B511480F490160FF2105312B
:10164000416000210722816012020161C260012213
:101650004161520282610162416208228162072374
:10166000C261C36242630163FFF71EFD002801D01F
:10167000FFF739F810BD0000003001408004002061
:1016800010B5184816490160E12149024160002166
:101690008160C16001618161C16101620C224162AE
:1016A00042618162FFF7D5FE002801D0FFF71BF8E9
:1016B00000210C48FFF7AAFE002801D0FFF713F81D
:1016C00000210848FFF77EFE002801D0FFF70BF845
:1016D0000448FFF759FE002801D0FFF704F810BDB9
:1016E00000380140E4040020FEE77047F8B50F46DB
:1016F0000B4615460092032104460022C90200F061
:101700001BF82026002812D13B46002280212046CB
:10171000009500F07DF8002809D103213B46002206
:1017200049022046009500F007F8002803D0206EFB
:10173000304320660320F8BDFFB585B00E46044651
:10174000002069460E9D17460871FFF78FF8411B70
:101750000898451AFFF78AF80390206823210C3077
:1017600002902A4800684843000D684346E0032081
:101770004002864206D1002F04D1029801786846C3
:10178000017100790898401C39D0FFF76FF8039970
:10179000401AA84205D2002D03D0009800282BD073
:1017A0002BE020684168E022914341606068C11FDE
:1017B000FD390CD10121A068C903884202D049112A
:1017C000884204D1206801684022914301600120D1
:1017D000A16A4003814207D121680A6882430A60F6
:1017E00021680A6802430A600120403460770020C3
:1017F0002077032009B0F0BD0025401E009020682E
:1018000080683040B842B2D10020F3E70C000020DD
:10181000FFB581B01E4604460A9DFFF727F8401B1E
:10182000351AFFF723F80746264800684001000DE7
:10183000684339E0701C38D0FFF718F8C01BA84285
:1018400005D2002D03D0009800282BD02BE0206873
:101850004168E022914341606068C11FFD390CD1AD
:101860000121A068C903884202D04911884204D1ED
:10187000206801684022914301600120A16A400371
:10188000814207D121680A6882430A6021680A6898
:1018900002430A6001204034607700202077032053
:1018A00005B0F0BD0025401E0090206881680298B8
:1018B000884305D0002103988142BBD10020EFE787
:1018C0000121F8E70C000020704710B5FEF7D4FFA7
:1018D00010BD30B591B034216846FEF73AFC0025C2
:1018E00001200D950E950F9540021095FFF71EF8FB
:1018F0000224E00103900094402005900A200A9001
:1019000020040B9003200794400704950C90099540
:1019100008946846FFF7DCF9002801D072B6FEE7AC
:1019200007200DA931C101210DA81095FFF7CAF8B4
:10193000002801D072B6FEE711B030BD704700003C
:10194000F8B50446416E4034002915D0006881681E
:10195000806809014D0F0A4E400F3746315C083F41
:10196000385CC000FEF7C6FB6085785D715DC00025
:10197000FEF7C0FB2085F8BD01206085FAE7000076
:10198000F82E000810B5018D090707D501684A68CF
:101990000123DB039A43836B1A434A60018DC90715
:1019A00007D001684A6801235B049A43C36A1A435B
:1019B0004A60018D890707D501684A6801231B0425
:1019C0009A43036B1A434A60018D490707D50168A2
:1019D0004A6801239B049A43436B1A434A60018D72
:1019E000C90607D50268916801231B039943C36B9D
:1019F00019439160018D890607D501688A68012322
:101A00005B039A43036C1A438A60018D490612D521
:101A100003685A6801210905446C8A4322435A60CD
:101A2000426C8A4207D10268516803235B059943DF
:101A3000836C19435160018D090607D501684A6816
:101A40000123DB04C06C9A4302434A6010BD0000CE
:101A5000FEB505460026803504462E61FEF706FFDA
:101A600001902068006820270007002817DA254821
:101A70000090002239042046019B00F02BF9002839
:101A80000DD0EFF31080012181F3108821680A68DE
:101A900080239A430A6080F31088AF6028E02068B2
:101AA0000068400727D517480090012100228905CA
:101AB0002046019B00F00EF900281CD0EFF31080A7
:101AC000012181F3108821680A68FF2321339A439A
:101AD0000A6080F31088EFF31080012181F31088F1
:101AE00021688A68520852008A6080F31088EF608B
:101AF0002E710320FEBDAF60EF60E66626672E7193
:101B00000020FEBDFFFFFF0110B5EFF310810122A1
:101B100082F3108802681368FF242134A343136002
:101B200081F31088EFF31081012282F3108802689C
:101B300093680D4C2340936081F31088C16E012996
:101B40000BD1EFF31081012282F310880268136831
:101B50001024A343136081F3108820228C210A50A3
:101B60000021C166416710BDFEFFFFEFF8B50446D6
:101B700080682169E2690843616900251143226890
:101B8000084311684B4B19400143116020684168BC
:101B9000032212039143E26811434160A169206A64
:101BA000084321688A68444B1A4002438A602068CF
:101BB000C16A626A090909011143C1623F4920688B
:101BC000884211D13E4840698007800F0FD001281C
:101BD00006D0022802D003280BD103E0022109E03D
:101BE000042107E0082105E03649884201D100219F
:101BF00000E010210120E369C003334A334E344F23
:101C0000834227D1002906D0022907D0042907D012
:101C100008293FD108E0FFF701F803E0104603E090
:101C2000FFF710F800283AD0616A4900715AFEF7B0
:101C300061FA616840004A088018FEF75BFA0146C5
:101C40001039B94226D82249491C01400007400FEB
:101C5000084322E0002906D0022907D0042907D032
:101C6000082917D108E0FEF7D9FF03E0104603E08A
:101C7000FEF7E8FF002812D0616A4900715AFEF7AA
:101C800039FA61684A088018FEF734FA01461039BB
:101C9000B94201D9012502E080B22168C86020461E
:101CA000012140304185018500206067A0672846FA
:101CB000F8BD0000F369FFCFFFF4FF1100380140C9
:101CC00040100240004400400024F400D82E0008D8
:101CD000EFFF0000FFB581B005460E460446803593
:101CE0000A9F32E0781C30D0FEF7C0FD0499401AFC
:101CF000B84218D8002F16D020680168490724D5AB
:101D0000802E22D0402E20D0C169C94309070CD4AF
:101D1000082606622046FFF7F7FE2E610020287194
:101D2000012005B0F0BD0320FBE7C069C0430005FA
:101D30000BD401202168C00208622046FFF7E4FEB0
:101D40002020286100202871EDE72068C169304615
:101D5000884305D0002103988142C3D00020E0E7EA
:101D60000121F8E710B5024B024A00F009F910BD55
:101D700065270008100000202021020C01D010214E
:101D80001046020A01D010460839020901D0104657
:101D9000091F820801D01046891E420801D0881E02
:101DA0007047081A704700008307FF22DB0E9A4035
:101DB0008907090E9940002808DB830809489B0021
:101DC0001B18186890430843186070470007000FFD
:101DD0000838830804489B001B18D86990430843BF
:101DE000D861704700E400E000ED00E002E008C8C0
:101DF000121F08C1002AFAD170477047002001E085
:101E000001C1121F002AFBD170470000F0B51FB4BA
:101E100086B00998089A030D0021024314D0514856
:101E2000514A1818504305141198012810981AD0D7
:101E3000281A401C00264D4F4D49009601910490F0
:101E4000002812DA444211E01198012449A3012824
:101E500001D11098C1430698119A84600360C26052
:101E600041600BB0F0BD4042E4E70446210500208C
:101E70003F4A001C51410391029012E0E00707D055
:101E800032463B4601990098FEF774FA01910090A2
:101E900032463B4610461946FEF76CFA06460F4698
:101EA0006410002CEAD10498039B0028029A099937
:101EB000089806DAFEF75EFA019B009AFEF75AFAD6
:101EC00005E0FEF7BFFA019B009AFEF7BBFA044655
:101ED0000E460022284BFEF74DFB03D80020C043DE
:101EE000014607E00022254B20463146FEF78EF9D9
:101EF000FEF720FB102409E0002C0ADB0A22002355
:101F0000FEF753F9079B30321A55641E02460A4306
:101F1000F2D11122641C079B121B1C19119B012B6F
:101F200003D0012308430ED10AE0084304D0112056
:101F300010900020119077E71098151A6D1E0BE095
:101F40001098824202DD00236D1C03E0824201DA18
:101F500000236D1E002BEED0069811998260C1609F
:101F600030C07EE701FCFFFF104D00000000144070
:101F70000000F03F300000000000F0430000E03FB0
:101F8000FFB597B0064600251BE2252876D1002430
:101F90002746F749049400E00443761C3278012078
:101FA000203A90400842F7D130782A280ED00222F9
:101FB000307801463039092916D804990A23594343
:101FC000303940181443761C0490F1E7189802C881
:101FD00004911890002904DA012040030443484288
:101FE000049002200443761C30782E2814D104205B
:101FF00004437078761C2A2809D11898761C80C86A
:10200000189009E00A214F43303FC719761C3078F9
:10201000014630390929F5D930786C2810D006DC12
:102020004C281AD068280ED06A2817D104E07428EA
:1020300013D07A2812D110E00120400504430CE0AF
:102040000121090501E0032109050C437178814252
:1020500003D1012000052418761C761C30786628F0
:102060000BD013DC58287DD009DC00287BD0452814
:10207000F6D04628F4D047281AD1A9E118E0632801
:1020800035D0642870D0652812D1A1E170286CD0B9
:1020900008DC6728F1D069287DD06E280DD06F2824
:1020A00006D1BCE073282ED0752873D0782859D07B
:1020B0001A9A199990476D1C82E16002400F02281C
:1020C00009D003280DD00428189801680DD00D60A0
:1020D000001D189074E11898EA1701680D604A60B5
:1020E000F6E7189801680D80F2E70D70F0E7189890
:1020F0006A4601781172001D18900020507202A8E3
:102100000090012005E0189802C818900020009166
:10211000C04361070ED5002101E00199491C0191DE
:10212000B94213DA8142F8DB019A0099895C0029EF
:10213000F3D10BE0002101E00199491C019181429A
:10214000FADB019A0099895C0029F5D1019904987C
:102150001A9B471A21463846199A00F099FA4019F5
:10216000019903E051E030E115E050E0451807E047
:10217000009800990078491C00911A9A1999904783
:102180000198401E0190401CF2D1214638461A9B0E
:10219000199A12E137E00A200021009001916002B3
:1021A000410F022907D0189A01CA1892C217944603
:1021B000032908D00AE01898C01DC108C90005C944
:1021C0001891944607E000B2C2179446042902D140
:1021D00040B2C1178C4600226146944506DA0A4691
:1021E0000021404291418C462D2102E0210504D579
:1021F0002B216A461173012103E0E10701D0202160
:10220000F7E7029156E00A200AE0102008E01020CB
:1022100000900021042004430191082703E00820D6
:102220000021019100906002410F022907D0189A05
:1022300001CA189200229446032908D008E0189891
:10224000C01DC108C90005C91891944603E080B2B9
:10225000042900D1C0B20021029121072AD531788A
:102260000D91702906D0009A1021019B4A401A4313
:1022700005D00EE040216A461173012108E0614655
:10228000014306D030216A4611730D995173022122
:102290000291009A0821019B4A401A430AD16146E3
:1022A000014301D1610705D530216A46117301212F
:1022B0007F1E02913178582904D02EA10E910DA9CC
:1022C0000D910DE030A1F9E76146019B009AFDF701
:1022D0006CFF0E9B8C469B5C0D9A521E0D921370E8
:1022E00061460143F0D10D9805A9081A20300190EC
:1022F000600703D501200004844300E00127019812
:10230000874201DD381A00E0002001990090411851
:10231000029809180498401A0490E00306D4214654
:102320001A9B199A049800F0B3F94519002706E0A2
:1023300003A81A9AC05D199990476D1C7F1C0298DA
:102340008742F5DBE0030CD521461A9B199A0498C5
:1023500000F09EF9451904E01A9A30201999904727
:102360006D1C0099481E00900029F5DC1FE000005C
:10237000092801003031323334353637383961625B
:10238000636465660000000030313233343536371F
:102390003839414243444546000000000D980D99EC
:1023A0000078491C0D911A9A199990476D1C019952
:1023B000481E01900029F1DC4DE100F059F9451962
:1023C000761C3078002800D0DFE528461BB0F0BD31
:1023D000600700D406271898C01DC108C9004868C6
:1023E0000A680831C30FDB071891190001D09CA1BE
:1023F00008E0210501D59BA104E0E10701D09AA1E5
:1024000000E09AA14300109130785B0865280CD059
:1024100006DC452809D046281DD0472841D141E097
:10242000662818D067283CD13CE00021112F01DB41
:10243000112000E0781C0191009008A911A8FFF775
:10244000E5FC139905910021119A15927F1C1298B1
:102450000197009150E00120C007039001200190F6
:1024600008A9009711A8FFF7D1FC139A14990592B7
:102470000022119B009212981593059A019200294F
:1024800001D0104602E0791C40180190381A01D59D
:10249000019804E04042401E0090781C0190C01B4F
:1024A000029043E0012F00DA01270021112F01DD06
:1024B000112000E038460191009008A911A8FFF70B
:1024C000A5FC13990591119A00211298159200917B
:1024D000019721070CD40599B94201DB019900E06D
:1024E0000191012904DD159A491E515C302906D05D
:1024F000B84201DA011D05DA0121029115E00199C6
:10250000491EEDE7002805DC00994118009101996A
:10251000091A03E0019A411C914200DD01910099E2
:10252000401A401C02900120C0070390200706D4E7
:1025300002990198814202DB0020C04302900020F2
:102540006946C87707AF012103980337C907884256
:1025500024D0022011902B201290039800280CDA2E
:10256000404203902D20129007E00A210398FDF7C6
:10257000C1FD30317F1E039039701199481E1190B2
:102580000029F2DC03980028EFD1791E1298087018
:102590003078202108404530BF1E387006A8C01B87
:1025A000C01D039010980078002800D001200199E8
:1025B00041180298C0170918039809180498401A7E
:1025C000401E0490E00306D421461A9B199A0498F1
:1025D00000F05EF8451910980078002803D01A9A88
:1025E000199990476D1CE00324D521461A9B199A2E
:1025F000049800F04DF845191CE00098002807DB0E
:1026000000990598884203DD1598405C199901E00E
:10261000199930201A9A904700986D1C401C009020
:102620000298401E0290002804D11A9A2E2019996F
:1026300090476D1C0199481E01900029DDDC05E0E2
:1026400038781A9A7F1C199990476D1C0399481E77
:1026500003900029F4DC21461A9B199A0498ACE6F1
:102660002D0000002B0000002000000000000000F2
:10267000F8B5044600251E461746880404D405E034
:1026800039462020B0476D1C641EF9D52846F8BD98
:10269000FFB50446002581B01E46C80301D530278A
:1026A00000E02027880404D505E038460399B047A8
:1026B0006D1C641EF9D5284605B0F0BDF8B50C4672
:1026C00001020204090E120EC3B2100409020843EB
:1026D000184300901E212046FDF73BFD00221046C6
:1026E00017210B1A0099D940C9071AD000210F23CE
:1026F0005D1A1B4BEB40DB070AD0D60857077F0F4C
:102700000725EF1BA35D0125BD402B43A35502E028
:10271000D308E55CE554491CC9B2521C1029E6D324
:1027200019E00F235D1A07235B03EB40DB070AD098
:10273000D60857077F0F0725EF1BA35D0125BD4076
:102740002B43A35502E0D308E55CE554491CC9B20C
:10275000521C1029E5D3401CC0B21828C0D3F8BDC4
:10276000F8FF000013B5044B012269460348FEF749
:10277000E5FE00981CBD0000FFFF0000E4040020FF
:10278000FEF782F8FFF7A5F8FEF740FFFEF752FFCD
:10279000FEF776FF0A210F2000F0A4F9FEE7000003
:1027A00010B5040004D0207D012803D0032010BD03
:1027B000022010BD60688047002804D0216903A072
:1027C0008847012010BD0020207510BD7773323876
:1027D0003132623A20737069206465696E697420D1
:1027E0006661696C65642E0A0000000010B5040083
:1027F00022D06021FDF7ADFC202210A12046FDF77C
:10280000B3FC202212A1A018FDF7AEFC204608223E
:1028100012A14030FDF7A8FC1148A0641148E06403
:102820008320C00520651048A065104860657D20A4
:10283000C000E065002010BD022010BD576F726C13
:102840006473656D6920575332383132420000009D
:10285000576F726C6473656D6920000053504900B6
:10286000CDCC6C409A99A9400000AA420000C8C192
:1028700010B5040016D02169002915D02068002861
:1028800014D06268002A13D0A268002A12D0E2682D
:10289000002A11D08047002811D021690AA088475A
:1028A000012010BD022010BD032010BD0DA004E0CA
:1028B00015A002E01CA000E024A08847F4E7012056
:1028C0002075002010BD0000777332383132623A33
:1028D0002073706920696E6974206661696C656433
:1028E0002E0A0000777332383132623A20737069F1
:1028F0005F31306D687A5F696E6974206973206E2C
:10290000756C6C2E0A000000777332383132623AEF
:10291000207370695F6465696E6974206973206EE5
:10292000756C6C2E0A000000777332383132623ACF
:10293000207370695F77726974655F636D64206985
:1029400073206E756C6C2E0A0000000077733238AD
:102950003132623A2064656C61795F6D732069730E
:10296000206E756C6C2E0A000FB410B503A9029886
:10297000FFF7F8F910BC08BC04B0184710B5FDF714
:10298000B5FE10BD00207047002070470A4610B504
:102990000146034B0348FEF72FFC002010BD00004A
:1029A000FFFF000080040020FFB581B00A9D16469D
:1029B000040005D0207D012804D0032005B0F0BD1F
:1029C0000220FBE7029800280BD0049800280DD0C5
:1029D0007002C108A9420DD9226920A090470520A4
:1029E000ECE721692BA088470420E7E721692FA0A5
:1029F0008847F4E70020024602E0049B1A54401C7A
:102A00008842FAD3A26889B204989047002820D15E
:102A1000FF21304681314843C708AF4205D92269BA
:102A200039460EA090470620C8E7002509E030206F
:102A30000499684341180298AA008058FFF73EFEA7
:102A40006D1CB542F3D3A268B9B204989047002830
:102A5000B4D021691BA088470120AFE777733238D3
:102A60003132623A2074656D7020627566666572F7
:102A700020697320746F6F20736D616C6C20616EC0
:102A8000642073697A652077696C6C206265202503
:102A9000642E0A00777332383132623A20726762EC
:102AA000206973206E756C6C2E0A000077733238C3
:102AB0003132623A2074656D70206973206E756CD6
:102AC0006C2E0A00777332383132623A207772699D
:102AD000746520636F6D6D616E64206661696C65FD
:102AE000642E0A00F0B5A1B00D4604461C226249CE
:102AF00019A8FDF715FB18216048FDF72AFB5F4870
:102B00005F4901605F4941605F4981605F49C16021
:102B10005F49016101A8FFF769FE002801D05DA0AF
:102B200054E001A962A0FFF71FFF09A966A0FFF703
:102B30001BFF11A96CA0FFF717FF7D21C900189892
:102B4000FDF7D8FA074608466421FDF7D3FA024696
:102B500039466CA0FFF708FF1398FDF712FB0246F9
:102B60000B4671A0FFF700FF1498FDF70AFB024621
:102B70000B4677A0FFF7F8FE1598FDF702FB02461B
:102B80000B467DA0FFF7F0FE1798FDF7FAFA024614
:102B90000B4682A0FFF7E8FE1698FDF7F2FA024610
:102BA0000B4688A0FFF7E0FE002C0ED0152C02D9B2
:102BB0008EA0FFF7D9FE97A0FFF7D6FE2F48FFF7AC
:102BC00057FE002805D09BA000E0A0A0FFF7CCFE98
:102BD00047E0152C00D915242746002424E00026C0
:102BE0000AE007212046FDF785FA890019A8415817
:102BF000B2009D48761C8150BE42F2D301201F4B8B
:102C000080021833191800903A461C48FFF7CCFE92
:102C1000002820D17D20C000FFF7B0FE2A46611CAD
:102C200092A0FFF7A1FE641CAC42D8D3002002465C
:102C30008D4902E08300CA50401CB842FAD30120FB
:102C40000E4B80021833191800903A460B48FFF7D4
:102C5000ABFE002808D08BA0FFF786FE0748FFF7E1
:102C60009FFD012021B0F0BD8CA0FFF77DFE034841
:102C7000FFF796FD0020F5E7BC2E000814000020A9
:102C800085290008892900088D2900087D29000868
:102C900069290008777332383132623A20676574E7
:102CA00020696E666F206661696C65642E0A00009B
:102CB000777332383132623A206368697020697301
:102CC0002025732E0A000000777332383132623AC1
:102CD000206D616E756661637475726572206973CB
:102CE0002025732E0A000000777332383132623AA1
:102CF00020696E746572666163652069732025734F
:102D00002E0A0000777332383132623A20647269D9
:102D10007665722076657273696F6E2069732025FF
:102D2000642E25642E0A0000777332383132623AFD
:102D3000206D696E20737570706C7920766F6C747D
:102D40006167652069732025302E3166562E0A0092
:102D5000777332383132623A206D61782073757042
:102D6000706C7920766F6C746167652069732025BB
:102D7000302E3166562E0A00777332383132623A7D
:102D8000206D61782063757272656E74206973209E
:102D900025302E32666D412E0A00000077733238DE
:102DA0003132623A206D61782074656D70657261B0
:102DB000747572652069732025302E3166432E0AA2
:102DC00000000000777332383132623A206D696E4C
:102DD0002074656D70657261747572652069732009
:102DE00025302E3166432E0A0000000077733238FA
:102DF0003132623A20636E74206973206F76657297
:102E000020323120616E64207573652032312E0AC4
:102E100000000000777332383132623A20737461F7
:102E20007274207265676973746572207465737457
:102E30002E0A0000777332383132623A20696E69A7
:102E400074206661696C65642E0A000077733238FD
:102E50003132623A20636E742063616E277420629F
:102E60006520302E0A0000002C04002077733238D1
:102E70003132623A2025642F25642074696D6573B0
:102E80002E0A0000777332383132623A2077726945
:102E90007465206661696C65642E0A007773323848
:102EA0003132623A2066696E6973682072656769BB
:102EB0007374657220746573742E0A000000FF003D
:102EC000007FFF0000FFFF0000FF0000FFFF000089
:102ED000FF000000FF008F00010002000400060058
:102EE00008000A000C0010002000400080000001D3
:102EF00001010103070100000804020408010101A7
:102F000000000000000000000000000000000000C1
:102F100000000000000000000000000000000000B1
:102F20000100000002000000030000000400000097
:102F30000600000007000000080000000900000073
:102F40000000000000000000000000000000000081
:102F50000100000002000000030000000400000067
:102F6000802F00080000002014000000EC1D000865
:102F7000942F00081400002064090000FC1D0008C4
:102F80000100000004000000000000000024F40024
:042F9000000000003D
:04000005080000C12E
:00000001FF
